{"abi":[{"type":"constructor","inputs":[],"stateMutability":"nonpayable"},{"type":"function","name":"addGame","inputs":[{"name":"_id","type":"uint256","internalType":"uint256"},{"name":"_datePlayed","type":"uint256","internalType":"uint256"},{"name":"_scorePlayer1","type":"uint256","internalType":"uint256"},{"name":"_scorePlayer2","type":"uint256","internalType":"uint256"},{"name":"_status","type":"string","internalType":"string"},{"name":"_player1Id","type":"uint256","internalType":"uint256"},{"name":"_player2Id","type":"uint256","internalType":"uint256"},{"name":"_winnerId","type":"uint256","internalType":"uint256"},{"name":"_tournamentId","type":"uint256","internalType":"uint256"}],"outputs":[],"stateMutability":"nonpayable"},{"type":"function","name":"admin","inputs":[],"outputs":[{"name":"","type":"address","internalType":"address"}],"stateMutability":"view"},{"type":"function","name":"getGame","inputs":[{"name":"_gameId","type":"uint256","internalType":"uint256"}],"outputs":[{"name":"gameId","type":"uint256","internalType":"uint256"},{"name":"id","type":"uint256","internalType":"uint256"},{"name":"datePlayed","type":"uint256","internalType":"uint256"},{"name":"scorePlayer1","type":"uint256","internalType":"uint256"},{"name":"scorePlayer2","type":"uint256","internalType":"uint256"},{"name":"status","type":"string","internalType":"string"},{"name":"player1Id","type":"uint256","internalType":"uint256"},{"name":"player2Id","type":"uint256","internalType":"uint256"},{"name":"winnerId","type":"uint256","internalType":"uint256"},{"name":"tournamentId","type":"uint256","internalType":"uint256"}],"stateMutability":"view"},{"type":"function","name":"getGameCount","inputs":[],"outputs":[{"name":"","type":"uint256","internalType":"uint256"}],"stateMutability":"view"},{"type":"function","name":"getGamesByPlayer","inputs":[{"name":"_playerId","type":"uint256","internalType":"uint256"}],"outputs":[{"name":"","type":"tuple[]","internalType":"struct PongGameHistory.Game[]","components":[{"name":"gameId","type":"uint256","internalType":"uint256"},{"name":"id","type":"uint256","internalType":"uint256"},{"name":"datePlayed","type":"uint256","internalType":"uint256"},{"name":"scorePlayer1","type":"uint256","internalType":"uint256"},{"name":"scorePlayer2","type":"uint256","internalType":"uint256"},{"name":"status","type":"string","internalType":"string"},{"name":"player1Id","type":"uint256","internalType":"uint256"},{"name":"player2Id","type":"uint256","internalType":"uint256"},{"name":"winnerId","type":"uint256","internalType":"uint256"},{"name":"tournamentId","type":"uint256","internalType":"uint256"}]}],"stateMutability":"view"},{"type":"function","name":"getGamesByTournament","inputs":[{"name":"_tournamentId","type":"uint256","internalType":"uint256"}],"outputs":[{"name":"","type":"tuple[]","internalType":"struct PongGameHistory.Game[]","components":[{"name":"gameId","type":"uint256","internalType":"uint256"},{"name":"id","type":"uint256","internalType":"uint256"},{"name":"datePlayed","type":"uint256","internalType":"uint256"},{"name":"scorePlayer1","type":"uint256","internalType":"uint256"},{"name":"scorePlayer2","type":"uint256","internalType":"uint256"},{"name":"status","type":"string","internalType":"string"},{"name":"player1Id","type":"uint256","internalType":"uint256"},{"name":"player2Id","type":"uint256","internalType":"uint256"},{"name":"winnerId","type":"uint256","internalType":"uint256"},{"name":"tournamentId","type":"uint256","internalType":"uint256"}]}],"stateMutability":"view"},{"type":"function","name":"getMaxPostgresId","inputs":[],"outputs":[{"name":"","type":"uint256","internalType":"uint256"}],"stateMutability":"view"},{"type":"function","name":"getPlayerGames","inputs":[{"name":"_playerId","type":"uint256","internalType":"uint256"}],"outputs":[{"name":"","type":"uint256[]","internalType":"uint256[]"}],"stateMutability":"view"},{"type":"event","name":"GameAdded","inputs":[{"name":"gameId","type":"uint256","indexed":true,"internalType":"uint256"},{"name":"id","type":"uint256","indexed":false,"internalType":"uint256"},{"name":"tournamentId","type":"uint256","indexed":false,"internalType":"uint256"},{"name":"player1Id","type":"uint256","indexed":false,"internalType":"uint256"},{"name":"player2Id","type":"uint256","indexed":false,"internalType":"uint256"},{"name":"winnerId","type":"uint256","indexed":false,"internalType":"uint256"}],"anonymous":false}],"bytecode":{"object":"0x6080604052348015600e575f5ffd5b50335f5f6101000a81548173ffffffffffffffffffffffffffffffffffffffff021916908373ffffffffffffffffffffffffffffffffffffffff1602179055506117bc8061005b5f395ff3fe608060405234801561000f575f5ffd5b5060043610610086575f3560e01c8063b76de96211610059578063b76de9621461012d578063e87c0ee61461015d578063f1085f5b1461017b578063f851a440146101ab57610086565b80632099458d1461008a5780639460b1fb146100a8578063a0fc85b1146100c4578063a2f77bcc146100f4575b5f5ffd5b6100926101c9565b60405161009f9190610c75565b60405180910390f35b6100c260048036038101906100bd9190610e05565b6101d2565b005b6100de60048036038101906100d99190610ee5565b6105d8565b6040516100eb9190611111565b60405180910390f35b61010e60048036038101906101099190610ee5565b6107f7565b6040516101249a99989796959493929190611179565b60405180910390f35b61014760048036038101906101429190610ee5565b610960565b6040516101549190611111565b60405180910390f35b610165610b7f565b6040516101729190610c75565b60405180910390f35b61019560048036038101906101909190610ee5565b610b88565b6040516101a291906112c2565b60405180910390f35b6101b3610bef565b6040516101c09190611321565b60405180910390f35b5f600654905090565b5f5f9054906101000a900473ffffffffffffffffffffffffffffffffffffffff1673ffffffffffffffffffffffffffffffffffffffff163373ffffffffffffffffffffffffffffffffffffffff1614610260576040517f08c379a0000000000000000000000000000000000000000000000000000000008152600401610257906113aa565b60405180910390fd5b60055f815480929190610272906113f5565b919050555060405180610140016040528060055481526020018a81526020018981526020018881526020018781526020018681526020018581526020018481526020018381526020018281525060015f60055481526020019081526020015f205f820151815f01556020820151816001015560408201518160020155606082015181600301556080820151816004015560a08201518160050190816103179190611639565b5060c0820151816006015560e082015181600701556101008201518160080155610120820151816009015590505060065489111561035757886006819055505b60025f8281526020019081526020015f20600554908060018154018082558091505060019003905f5260205f20015f909190919091505560035f8581526020019081526020015f205f60055481526020019081526020015f205f9054906101000a900460ff166104335760045f8581526020019081526020015f20600554908060018154018082558091505060019003905f5260205f20015f9091909190915055600160035f8681526020019081526020015f205f60055481526020019081526020015f205f6101000a81548160ff0219169083151502179055505b60035f8481526020019081526020015f205f60055481526020019081526020015f205f9054906101000a900460ff166104d85760045f8481526020019081526020015f20600554908060018154018082558091505060019003905f5260205f20015f9091909190915055600160035f8581526020019081526020015f205f60055481526020019081526020015f205f6101000a81548160ff0219169083151502179055505b5f8214158015610514575060035f8381526020019081526020015f205f60055481526020019081526020015f205f9054906101000a900460ff16155b1561058b5760045f8381526020019081526020015f20600554908060018154018082558091505060019003905f5260205f20015f9091909190915055600160035f8481526020019081526020015f205f60055481526020019081526020015f205f6101000a81548160ff0219169083151502179055505b6005547fb3b61e2c1e8e943e7e47a7469a7de6f077351f0989534224e0804d74a374c6298a838787876040516105c5959493929190611708565b60405180910390a2505050505050505050565b60605f60025f8481526020019081526020015f2080548060200260200160405190810160405280929190818152602001828054801561063457602002820191905f5260205f20905b815481526020019060010190808311610620575b505050505090505f815167ffffffffffffffff81111561065757610656610ce1565b5b60405190808252806020026020018201604052801561069057816020015b61067d610c13565b8152602001906001900390816106755790505b5090505f5f90505b82518110156107ec5760015f8483815181106106b7576106b6611759565b5b602002602001015181526020019081526020015f20604051806101400160405290815f82015481526020016001820154815260200160028201548152602001600382015481526020016004820154815260200160058201805461071990611469565b80601f016020809104026020016040519081016040528092919081815260200182805461074590611469565b80156107905780601f1061076757610100808354040283529160200191610790565b820191905f5260205f20905b81548152906001019060200180831161077357829003601f168201915b505050505081526020016006820154815260200160078201548152602001600882015481526020016009820154815250508282815181106107d4576107d3611759565b5b60200260200101819052508080600101915050610698565b508092505050919050565b5f5f5f5f5f60605f5f5f5f5f60015f8d81526020019081526020015f20604051806101400160405290815f82015481526020016001820154815260200160028201548152602001600382015481526020016004820154815260200160058201805461086190611469565b80601f016020809104026020016040519081016040528092919081815260200182805461088d90611469565b80156108d85780601f106108af576101008083540402835291602001916108d8565b820191905f5260205f20905b8154815290600101906020018083116108bb57829003601f168201915b505050505081526020016006820154815260200160078201548152602001600882015481526020016009820154815250509050805f015181602001518260400151836060015184608001518560a001518660c001518760e001518861010001518961012001519a509a509a509a509a509a509a509a509a509a50509193959799509193959799565b60605f60045f8481526020019081526020015f208054806020026020016040519081016040528092919081815260200182805480156109bc57602002820191905f5260205f20905b8154815260200190600101908083116109a8575b505050505090505f815167ffffffffffffffff8111156109df576109de610ce1565b5b604051908082528060200260200182016040528015610a1857816020015b610a05610c13565b8152602001906001900390816109fd5790505b5090505f5f90505b8251811015610b745760015f848381518110610a3f57610a3e611759565b5b602002602001015181526020019081526020015f20604051806101400160405290815f820154815260200160018201548152602001600282015481526020016003820154815260200160048201548152602001600582018054610aa190611469565b80601f0160208091040260200160405190810160405280929190818152602001828054610acd90611469565b8015610b185780601f10610aef57610100808354040283529160200191610b18565b820191905f5260205f20905b815481529060010190602001808311610afb57829003601f168201915b50505050508152602001600682015481526020016007820154815260200160088201548152602001600982015481525050828281518110610b5c57610b5b611759565b5b60200260200101819052508080600101915050610a20565b508092505050919050565b5f600554905090565b606060045f8381526020019081526020015f20805480602002602001604051908101604052809291908181526020018280548015610be357602002820191905f5260205f20905b815481526020019060010190808311610bcf575b50505050509050919050565b5f5f9054906101000a900473ffffffffffffffffffffffffffffffffffffffff1681565b6040518061014001604052805f81526020015f81526020015f81526020015f81526020015f8152602001606081526020015f81526020015f81526020015f81526020015f81525090565b5f819050919050565b610c6f81610c5d565b82525050565b5f602082019050610c885f830184610c66565b92915050565b5f604051905090565b5f5ffd5b5f5ffd5b610ca881610c5d565b8114610cb2575f5ffd5b50565b5f81359050610cc381610c9f565b92915050565b5f5ffd5b5f5ffd5b5f601f19601f8301169050919050565b7f4e487b71000000000000000000000000000000000000000000000000000000005f52604160045260245ffd5b610d1782610cd1565b810181811067ffffffffffffffff82111715610d3657610d35610ce1565b5b80604052505050565b5f610d48610c8e565b9050610d548282610d0e565b919050565b5f67ffffffffffffffff821115610d7357610d72610ce1565b5b610d7c82610cd1565b9050602081019050919050565b828183375f83830152505050565b5f610da9610da484610d59565b610d3f565b905082815260208101848484011115610dc557610dc4610ccd565b5b610dd0848285610d89565b509392505050565b5f82601f830112610dec57610deb610cc9565b5b8135610dfc848260208601610d97565b91505092915050565b5f5f5f5f5f5f5f5f5f6101208a8c031215610e2357610e22610c97565b5b5f610e308c828d01610cb5565b9950506020610e418c828d01610cb5565b9850506040610e528c828d01610cb5565b9750506060610e638c828d01610cb5565b96505060808a013567ffffffffffffffff811115610e8457610e83610c9b565b5b610e908c828d01610dd8565b95505060a0610ea18c828d01610cb5565b94505060c0610eb28c828d01610cb5565b93505060e0610ec38c828d01610cb5565b925050610100610ed58c828d01610cb5565b9150509295985092959850929598565b5f60208284031215610efa57610ef9610c97565b5b5f610f0784828501610cb5565b91505092915050565b5f81519050919050565b5f82825260208201905092915050565b5f819050602082019050919050565b610f4281610c5d565b82525050565b5f81519050919050565b5f82825260208201905092915050565b8281835e5f83830152505050565b5f610f7a82610f48565b610f848185610f52565b9350610f94818560208601610f62565b610f9d81610cd1565b840191505092915050565b5f61014083015f830151610fbe5f860182610f39565b506020830151610fd16020860182610f39565b506040830151610fe46040860182610f39565b506060830151610ff76060860182610f39565b50608083015161100a6080860182610f39565b5060a083015184820360a08601526110228282610f70565b91505060c083015161103760c0860182610f39565b5060e083015161104a60e0860182610f39565b5061010083015161105f610100860182610f39565b50610120830151611074610120860182610f39565b508091505092915050565b5f61108a8383610fa8565b905092915050565b5f602082019050919050565b5f6110a882610f10565b6110b28185610f1a565b9350836020820285016110c485610f2a565b805f5b858110156110ff57848403895281516110e0858261107f565b94506110eb83611092565b925060208a019950506001810190506110c7565b50829750879550505050505092915050565b5f6020820190508181035f830152611129818461109e565b905092915050565b5f82825260208201905092915050565b5f61114b82610f48565b6111558185611131565b9350611165818560208601610f62565b61116e81610cd1565b840191505092915050565b5f6101408201905061118d5f83018d610c66565b61119a602083018c610c66565b6111a7604083018b610c66565b6111b4606083018a610c66565b6111c16080830189610c66565b81810360a08301526111d38188611141565b90506111e260c0830187610c66565b6111ef60e0830186610c66565b6111fd610100830185610c66565b61120b610120830184610c66565b9b9a5050505050505050505050565b5f81519050919050565b5f82825260208201905092915050565b5f819050602082019050919050565b5f61124e8383610f39565b60208301905092915050565b5f602082019050919050565b5f6112708261121a565b61127a8185611224565b935061128583611234565b805f5b838110156112b557815161129c8882611243565b97506112a78361125a565b925050600181019050611288565b5085935050505092915050565b5f6020820190508181035f8301526112da8184611266565b905092915050565b5f73ffffffffffffffffffffffffffffffffffffffff82169050919050565b5f61130b826112e2565b9050919050565b61131b81611301565b82525050565b5f6020820190506113345f830184611312565b92915050565b7f4f6e6c79207468652061646d696e6973747261746f722063616e2061646420675f8201527f616d657300000000000000000000000000000000000000000000000000000000602082015250565b5f611394602483611131565b915061139f8261133a565b604082019050919050565b5f6020820190508181035f8301526113c181611388565b9050919050565b7f4e487b71000000000000000000000000000000000000000000000000000000005f52601160045260245ffd5b5f6113ff82610c5d565b91507fffffffffffffffffffffffffffffffffffffffffffffffffffffffffffffffff8203611431576114306113c8565b5b600182019050919050565b7f4e487b71000000000000000000000000000000000000000000000000000000005f52602260045260245ffd5b5f600282049050600182168061148057607f821691505b6020821081036114935761149261143c565b5b50919050565b5f819050815f5260205f209050919050565b5f6020601f8301049050919050565b5f82821b905092915050565b5f600883026114f57fffffffffffffffffffffffffffffffffffffffffffffffffffffffffffffffff826114ba565b6114ff86836114ba565b95508019841693508086168417925050509392505050565b5f819050919050565b5f61153a61153561153084610c5d565b611517565b610c5d565b9050919050565b5f819050919050565b61155383611520565b61156761155f82611541565b8484546114c6565b825550505050565b5f5f905090565b61157e61156f565b61158981848461154a565b505050565b5b818110156115ac576115a15f82611576565b60018101905061158f565b5050565b601f8211156115f1576115c281611499565b6115cb846114ab565b810160208510156115da578190505b6115ee6115e6856114ab565b83018261158e565b50505b505050565b5f82821c905092915050565b5f6116115f19846008026115f6565b1980831691505092915050565b5f6116298383611602565b9150826002028217905092915050565b61164282610f48565b67ffffffffffffffff81111561165b5761165a610ce1565b5b6116658254611469565b6116708282856115b0565b5f60209050601f8311600181146116a1575f841561168f578287015190505b611699858261161e565b865550611700565b601f1984166116af86611499565b5f5b828110156116d6578489015182556001820191506020850194506020810190506116b1565b868310156116f357848901516116ef601f891682611602565b8355505b6001600288020188555050505b505050505050565b5f60a08201905061171b5f830188610c66565b6117286020830187610c66565b6117356040830186610c66565b6117426060830185610c66565b61174f6080830184610c66565b9695505050505050565b7f4e487b71000000000000000000000000000000000000000000000000000000005f52603260045260245ffdfea2646970667358221220739f88fc1437fcb91d8b45a300882ec27e2a7141e47444b77f7a0069d6a2498f64736f6c634300081c0033","linkReferences":{}},"methodIdentifiers":{"addGame(uint256,uint256,uint256,uint256,string,uint256,uint256,uint256,uint256)":"9460b1fb","admin()":"f851a440","getGame(uint256)":"a2f77bcc","getGameCount()":"e87c0ee6","getGamesByPlayer(uint256)":"b76de962","getGamesByTournament(uint256)":"a0fc85b1","getMaxPostgresId()":"2099458d","getPlayerGames(uint256)":"f1085f5b"},"id":15}